:020000040800F2
:100000000040002035080008FD0500080306000830
:10001000090600080F060008150600080000000089
:100020000000000000000000000000001B060008A7
:1000300029060008000000003706000845060008F1
:10004000850800088508000885080008850800085C
:10005000850800088508000885080008850800084C
:10006000850800088508000885080008850800083C
:10007000850800088508000885080008850800082C
:10008000850800088508000885080008850800081C
:100090009107000885080008850800088508000801
:1000A00085080008850800088508000885080008FC
:1000B0008508000800000000000000008508000816
:1000C0008508000885080008850800080000000071
:1000D00085080008850800088508000885080008CC
:1000E0008508000885080008850800080000000051
:1000F0000000000000000000000000000000000000
:10010000000000000000000000000000850800085A
:10011000000000000000000085080008000000004A
:1001200000000000000000000000000000000000CF
:1001300000000000000000000000000000000000BF
:100140008508000885080008000000000000000085
:10015000000000000000000000000000000000009F
:10016000850800088508000885080008850800083B
:1001700085080008000000000000000000000000EA
:080180000000000085080008E2
:1001900010B5054C237833B9044B13B10448AFF3C1
:1001A00000800123237010BD100200200000000019
:1001B00098C3000808B5034B1BB103490348AFF3CC
:1001C000008008BD000000001402002098C3000851
:1001D000034613F8012B002AFBD1181A0138704787
:1001E00001F0FF01102A2BDB10F0070F08D010F8E8
:1001F000013B013A8B422DD010F0070F42B3F6D1EC
:10020000F0B441EA012141EA014122F007047FF004
:1002100000070023F0E80256083C85EA010586EA5B
:10022000010685FA47F5A3FA87F586FA47F6A5FA97
:1002300087F68EB9EED1F0BC01F0FF0102F00702A3
:1002400032B110F8013B013A83EA010313B1F8D14E
:100250000020704701387047002D06BF354603382F
:10026000073815F0010F07D1013015F4807F02BF68
:10027000013015F4C03F0130F0BC0138704700BFB9
:1002800080B586B000AF3B4600221A605A609A6083
:10029000DA601A615A61274B4FF0A0421A60254B71
:1002A00000225A60234B00229A60224B00221A61DE
:1002B000204B01225A761F4B002283F820201D4B31
:1002C0000022DA621B4B01229A621A4B0022DA608A
:1002D000184B0122DA61174B002283F83020154BAE
:1002E00004225A61134B00221A76124B00225A63E1
:1002F000104800F053FB0346002B01D000F054F9E6
:100300000C233B6001237B600023FB600023BB6068
:1003100000233B6100237B613B461946054800F002
:1003200031FD0346002B01D000F03EF900BF183725
:10033000BD4680BD2C02002080B58AB000AF786039
:1003400007F1140300221A605A609A60DA601A6199
:100350007B681B68B3F1A04F23D1144B5B69134A30
:1003600043F080535361114B5B6903F080533B6151
:100370003B690E4B5B690D4A43F4802353610B4B81
:100380005B6903F48023FB60FB6802237B6103232A
:10039000BB610023FB6107F114031946044801F017
:1003A00047FE00BF2837BD4680BD00BF0010024099
:1003B0000004004880B588B000AF07F10C030022AC
:1003C0001A605A609A60DA601A613D4B5B693C4A78
:1003D00043F4800353613A4B5B6903F48003BB60D1
:1003E000BB68374B5B69364A43F400335361344B87
:1003F0005B6903F400337B607B68314B5B69304A97
:1004000043F4802353612E4B5B6903F480233B60EC
:100410003B68002248F25F014FF0904001F092FFEC
:1004200000224FF44C51274801F08CFF48F25F0343
:10043000FB6001233B6100237B610023BB6107F16B
:100440000C0319464FF0904001F0F2FD8023FB6051
:1004500000233B6100237B6107F10C0319464FF039
:10046000904001F0E5FD0123FB6000233B61002388
:100470007B6107F10C031946124801F0D9FD4FF4D6
:100480004C53FB6001233B6100237B610023BB6174
:1004900007F10C0319460B4801F0CAFD0223FB606B
:1004A00001233B6100237B610023BB6107F10C0347
:1004B0001946044801F0BCFD00BF2037BD4680BD91
:1004C000001002400004004880B500AF00F0DCF9E5
:1004D00000F008F8FFF76EFF08F034FE0AF04CF861
:1004E000FEE7000080B59CB000AF07F1480328226A
:1004F000002118460BF0B8FA07F1340300221A6005
:100500005A609A60DA601A613B463422002118462C
:100510000BF0AAFA0923BB644FF48033FB64002379
:100520003B650123BB6501233B6602237B664FF4D9
:100530008033BB664FF4E013FB6607F148031846AF
:1005400003F008FC0346002B01D000F02DF80F2328
:100550007B630223BB630023FB634FF480633B6434
:1005600000237B6407F134030221184604F030FCB9
:100570000346002B01D000F017F80A4B3B60002324
:100580003B634FF48073BB613B46184604F006FEA4
:100590000346002B01D000F007F800BF7037BD46BE
:1005A00080BD00BF8000020080B400AF72B600BF03
:1005B000FEE7000080B483B000AF0F4B9B690E4A8A
:1005C00043F0010393610C4B9B6903F001037B60D3
:1005D0007B68094BDB69084A43F08053D361064BC3
:1005E000DB6903F080533B603B6800BF0C37BD46BE
:1005F0005DF8047B704700BF0010024080B400AF7C
:10060000FEE780B400AFFEE780B400AFFEE780B441
:1006100000AFFEE780B400AFFEE780B400AF00BFDC
:10062000BD465DF8047B704780B400AF00BFBD4697
:100630005DF8047B704780B400AF00BFBD465DF835
:10064000047B704780B500AF00F064F980214FF063
:10065000904001F05FFE0346002B14BF01230023EE
:10066000DAB2404B1A7001213F4801F053FE0346B5
:10067000002B14BF01230023DAB23C4B1A703C4B11
:1006800001221A703B4B1B6801333A4A1360394B05
:100690001B68B3F57A7F21DD364B00221A604021BA
:1006A0004FF0904001F066FE4FF400712E4801F0CB
:1006B00061FE4FF480712C4801F05CFE4FF4005154
:1006C000294801F057FE4FF48051274801F052FEAF
:1006D0004FF400414FF0904001F04CFE264B1B7848
:1006E000002B05D0254B1B780133DAB2234B1A704F
:1006F000224B1B78012B33D9204B00221A7080210A
:100700004FF0904001F006FE0346002B06D0012179
:10071000154801F0FFFD0346002B0AD1184B1B685A
:100720001B6C9A08174B1B6891B2174A22F81310DA
:1007300006E0144B1B68144A4FF4007122F81310A2
:10074000104B1B6801330F4A13600E4B1B68B3F547
:100750007A7F05D10B4B00221A600C4B01221A70D4
:1007600000BF80BD471D002000040048481D002038
:100770007C02002080020020451D00207D02002018
:100780002C0200203C1D00206C150020491D00207B
:1007900080B500AF024801F00BFF00BF80BD00BF75
:1007A0004410002080B586B000AF7860144A154B25
:1007B000D31A7B617B693B61134B1B68002B02D111
:1007C000114B124A1A60104B1A687B6813443A693D
:1007D0009A4207D20BF064F903460C221A604FF0DC
:1007E000FF3309E0084B1B68FB60074B1A687B6806
:1007F0001344054A1360FB6818461837BD4680BD90
:10080000004000200005000084020020F81F0020A6
:1008100080B400AF064BD3F88830054A43F4700328
:10082000C2F8883000BFBD465DF8047B704700BF4A
:1008300000ED00E0DFF834D00D480E490E4A0023E9
:1008400002E0D458C4500433C4188C42F9D30B4A84
:100850000B4C002301E013600432A242FBD3FFF7EC
:10086000D7FF0BF023F9FFF72FFEFEE70040002033
:10087000000000200C020020C8C500081002002063
:10088000F81F0020FEE7000080B500AF084B1B6892
:10089000074A43F010031360032000F0BFFE00205E
:1008A00000F008F8FFF786FE0023184680BD00BF61
:1008B0000020024080B582B000AF7860124B1A6809
:1008C000124B1B7819464FF47A73B3FBF1F3B2FB6A
:1008D000F3F3184600F0D7FE0346002B01D00123A6
:1008E0000EE07B680F2B0AD8002279684FF0FF30AA
:1008F00000F09FFE064A7B681360002300E001239E
:1009000018460837BD4680BD0000002008000020C2
:100910000400002080B400AF064B1B781A46064B3B
:100920001B681344044A136000BFBD465DF8047B96
:10093000704700BF080000208802002080B400AF8C
:10094000034B1B681846BD465DF8047B704700BF2B
:100950008802002080B584B000AF7860FFF7EEFF1A
:10096000B8607B68FB60FB68B3F1FF3F05D00A4BC2
:100970001B781A46FB681344FB6000BFFFF7DEFFDD
:100980000246BB68D31AFA689A42F7D800BF00BF84
:100990001037BD4680BD00BF0800002080B59AB06A
:1009A00000AF7860002387F8673000233B660023A0
:1009B000BB607B68002B01D1012369E17B681B6967
:1009C000002B7B681B6C03F01003002B76D17B6837
:1009D0001B6C002B52D17B6800225A647B6800227A
:1009E000DA647B6800229A647B68002283F83C20EA
:1009F0007868FFF7A1FC7B681B689B6803F0805355
:100A0000002B3BD1786800F0D3FC034687F86730B1
:100A10007B681B6C03F01003002B2FD197F8673015
:100A2000002B2BD17B681B6C23F4885323F002032B
:100A300043F002027B681A647B681B689A687B68D3
:100A40001B6822F040529A607B681B689A687B683A
:100A50001B6842F080529A608F4B1B688F4AA2FB42
:100A600003239A0C13469B0013445B00BB6002E017
:100A7000BB68013BBB60BB68002BF9D17B681B687E
:100A80009B6803F08053002B07D07B681B689B6832
:100A900003F00053B3F1005F10D17B681B6C23F0AF
:100AA000120343F010027B681A647B685B6C43F0AE
:100AB00001027B685A64012387F867307B681B6CEE
:100AC00003F01003002B40F0D68097F86730002B1E
:100AD00040F0D1807B681B689B6803F00403002B07
:100AE00040F0C9807B681B6C23F4817343F00202E1
:100AF0007B681A646A4BFB650023FB607B681B689C
:100B00009B6803F00303012B08D17B681B681B68FB
:100B100003F00103012B01D1012300E00023002B8E
:100B20001CD1FB68002B10D0FB689B6803F003030B
:100B3000012B07D1FB681B6803F00103012B01D1D6
:100B4000012300E00023002B08D1FB6D9B6823F4F8
:100B500040327B685B681A43FB6D9A607B685B7E02
:100B60005B037A68526B012A02D04FF4805200E096
:100B700000221A437B68DB681A437B689B68134337
:100B80003A6E13433B667B6893F82030012B1BD1F0
:100B90007B685B7E002B09D17B685B6A013B5A0452
:100BA0003B6E134343F480333B660DE07B681B6C64
:100BB00023F0220343F020027B681A647B685B6C9D
:100BC00043F001027B685A647B689B6A012B07D063
:100BD0007B689A6A7B68DB6A13433A6E13433B6611
:100BE0007B681B689B6803F00C03002B14D17B68A7
:100BF0001B68DB687A68126823F4804323F00203E1
:100C0000D3607B681B7E9A037B6893F830305B006F
:100C100013433A6E13433B667B681B68DA68214BCB
:100C200013407A681268396E0B43D3607B681B6986
:100C3000012B0CD17B681B681B6B23F00F017B68B9
:100C4000DB695A1E7B681B680A431A6307E07B68EE
:100C50001B681A6B7B681B6822F00F021A637B68A3
:100C600000225A647B681B6C23F0030343F00102EB
:100C70007B681A640AE07B681B6C23F0120343F064
:100C800010027B681A64012387F8673097F8673091
:100C900018466837BD4680BD0000002083DE1B4338
:100CA0000003005007C0F0FF80B584B000AF78604B
:100CB0000023FB737B681B689B6803F00403002B15
:100CC00058D17B6893F83C30012B01D1022354E0CA
:100CD0007B68012283F83C20786800F005FB03461E
:100CE000FB73FB7B002B40D17B681B6C23F4706390
:100CF00023F0010343F480727B681A647B681B6CE9
:100D000023F480127B681A647B681B68DB6803F03D
:100D10000073002B07D07B681B6C23F4405343F413
:100D200080527B681A647B681B6C03F48053B3F5B4
:100D3000805F06D17B685B6C23F006027B685A6497
:100D400002E07B6800225A647B68002283F83C2022
:100D50007B681B681C221A607B681B689A687B682A
:100D60001B6842F004029A6006E07B68002283F868
:100D70003C2001E00223FB73FB7B18461037BD4685
:100D800080BD000080B49BB000AF78603960002364
:100D900087F867300023BB607B6893F83C30012BF9
:100DA00001D1022395E27B68012283F83C207B6815
:100DB0001B689B6803F00403002B40F079823B68BA
:100DC0005B68042B1CD87B681B68196B3B685A68EE
:100DD00013465B0013445B001A461F239340DB431A
:100DE00019403B6818683B685A6813465B00134417
:100DF0005B0000FA03F27B681B680A431A6363E036
:100E00003B685B68092B1ED87B681B68596B3B6885
:100E10005A6813465B0013445B001E3B1F2202FA14
:100E200003F3DB4319403B6818683B685A68134674
:100E30005B0013445B001E3B00FA03F27B681B68F7
:100E40000A435A6340E03B685B680E2B1ED87B6800
:100E50001B68996B3B685A6813465B0013445B0040
:100E60003C3B1F2202FA03F3DB4319403B6818683E
:100E70003B685A6813465B0013445B003C3B00FA36
:100E800003F27B681B680A439A631DE07B681B685A
:100E9000D96B3B685A6813465B0013445B005A3BAE
:100EA0001F2202FA03F3DB4319403B6818683B68D2
:100EB0005A6813465B0013445B005A3B00FA03F286
:100EC0007B681B680A43DA637B681B689B6803F0D6
:100ED0000C03002B40F0E5803B681B68092B1CD9F4
:100EE0007B681B6899693B681A6813465B0013446A
:100EF0001E3B072202FA03F3DB4319403B68986864
:100F00003B681A6813465B0013441E3B00FA03F269
:100F10007B681B680A439A6119E07B681B68596902
:100F20003B681A6813465B001344072202FA03F376
:100F3000DB4319403B6898683B681A6813465B00BE
:100F4000134400FA03F27B681B680A435A613B684A
:100F50005A697B681B68DB68DB0803F003035B00EE
:100F600002FA03F33B663B681B69013B032B4FD836
:100F700001A252F823F000BF890F0008AB0F000850
:100F8000CD0F0008EF0F00087B681B681A6E974BA7
:100F900013403A68126891063A6E0A431A437B6816
:100FA0001B6842F000421A667BE07B681B685A6E41
:100FB0008E4B13403A68126891063A6E0A431A4300
:100FC0007B681B6842F000425A666AE07B681B68D7
:100FD0009A6E864B13403A68126891063A6E0A433D
:100FE0001A437B681B6842F000429A6659E07B68AE
:100FF0001B68DA6E7D4B13403A68126891063A6EB0
:101000000A431A437B681B6842F00042DA6648E0F4
:101010007B681B681B6E03F0F8423B681B689B06ED
:101020009A4207D17B681B681A6E7B681B6822F0A6
:1010300000421A667B681B685B6E03F0F8423B68EF
:101040001B689B069A4207D17B681B685A6E7B68B7
:101050001B6822F000425A667B681B689B6E03F097
:10106000F8423B681B689B069A4207D17B681B6865
:101070009A6E7B681B6822F000429A667B681B6848
:10108000DB6E03F0F8423B681B689B069A4207D16F
:101090007B681B68DA6E7B681B6822F00042DA66A8
:1010A00000BF7B681B689B6803F00303012B08D11A
:1010B0007B681B681B6803F00103012B01D101232E
:1010C00000E00023002B40F0FE803B68DB68012B32
:1010D0000FD07B681B68D3F8B0103B681B680122F7
:1010E00002FA03F3DA437B681B680A40C3F8B020B6
:1010F00049E07B681B68D3F8B0103B681B6801228D
:101100009A407B681B680A43C3F8B0203B681B68A1
:10111000092B1CD97B681B6899693B681A681346C0
:101120005B0013441B3B072202FA03F3DB43194025
:101130003B6898683B681A6813465B0013441B3B86
:1011400000FA03F27B681B680A439A611BE07B6824
:101150001B6859693B681B685A1C13465B001344A3
:10116000072202FA03F3DB4319403B6898683B68A7
:101170001B685A1C13465B00134400FA03F27B6899
:101180001B680A435A611A4BFB653B681B68102BAE
:1011900005D1FB6D9B6803F40003002B14D03B6862
:1011A0001B68112B05D1FB6D9B6803F08073002B2E
:1011B0000AD03B681B68122B40F08580FB6D9B6852
:1011C00003F48003002B7ED10023FB607B681B6847
:1011D0009B6803F00303012B0CD17B681B681B6821
:1011E00003F00103012B05D1012304E000F0FF838C
:1011F000000300500023002B50D1FB68002B10D0BF
:10120000FB689B6803F00303012B07D1FB681B6895
:1012100003F00103012B01D1012300E00023002B87
:101220003CD13B681B68102B1DD17B681B68B3F158
:10123000A04F18D1FB6D9B6843F40002FB6D9A60D0
:10124000274B1B68274AA2FB03239A0C13469B00DB
:1012500013445B00BB6002E0BB68013BBB60BB6842
:10126000002BF9D12EE03B681B68112B0BD17B685A
:101270001B68B3F1A04F06D1FB6D9B6843F08072F1
:10128000FB6D9A601EE03B681B68122B1AD1FB6D48
:101290009B6843F48002FB6D9A6013E07B681B6CD3
:1012A00043F020027B681A64012387F867300AE064
:1012B0007B681B6C43F020027B681A64012387F86B
:1012C000673000E000BF7B68002283F83C2097F87D
:1012D000673018466C37BD465DF8047B704700BF29
:1012E0000000002083DE1B4380B584B000AF78602F
:1012F0000023FB607B681B689B6803F00303012BE2
:1013000008D17B681B681B6803F00103012B01D126
:10131000012300E00023002B43D17B681B689A68FF
:10132000224B1340002B0DD07B681B6C43F0100246
:101330007B681A647B685B6C43F001027B685A64CB
:1013400001232FE07B681B689A687B681B6842F06A
:1013500001029A60FFF7F2FAF8601BE0FFF7EEFA7D
:101360000246FB68D31A022B14D97B681B681B68E2
:1013700003F00103012B0DD07B681B6C43F01002BE
:101380007B681A647B685B6C43F001027B685A647B
:10139000012307E07B681B681B6803F00103012B36
:1013A000DCD1002318461037BD4680BD3F000080C9
:1013B00080B584B000AF78600023FB607B681B6859
:1013C0009B6803F00303012B08D17B681B681B6833
:1013D00003F00103012B01D1012300E00023002BC6
:1013E00047D07B681B689B6803F00D03012B0FD16E
:1013F0007B681B689A687B681B6842F002029A60EF
:101400007B681B6803221A60FFF798FAF86029E0EE
:101410007B681B6C43F010027B681A647B685B6C12
:1014200043F001027B685A64012323E0FFF786FA48
:101430000246FB68D31A022B14D97B681B689B6891
:1014400003F00103012B0DD17B681B6C43F01002EC
:101450007B681A647B685B6C43F001027B685A64AA
:10146000012307E07B681B689B6803F00103012BE5
:10147000DCD0002318461037BD4680BD80B485B04F
:1014800000AF78607B6803F00703FB600C4BDB6800
:10149000BB60BA684FF6FF031340BB60FB681A02DB
:1014A000BB68134343F0BF6343F40033BB60044A9B
:1014B000BB68D36000BF1437BD465DF8047B70473E
:1014C00000ED00E080B400AF044BDB681B0A03F0C2
:1014D00007031846BD465DF8047B704700ED00E049
:1014E00080B483B000AF0346FB7197F90730002B3F
:1014F0000BDBFB7903F01F02074997F907305B0903
:10150000012000FA02F241F8232000BF0C37BD464B
:101510005DF8047B704700BF00E100E080B483B059
:1015200000AF03463960FB7197F90730002B0ADBE7
:101530003B68DAB20C4997F907301201D2B20B447A
:1015400083F800230AE03B68DAB20849FB7903F02C
:101550000F03043B1201D2B20B441A7600BF0C37C2
:10156000BD465DF8047B704700E100E000ED00E05F
:1015700080B489B000AFF860B9607A60FB6803F0AE
:101580000703FB61FB69C3F10703042B28BF042396
:10159000BB61FB690433062B02D9FB69033B00E006
:1015A00000237B614FF0FF32BB6902FA03F3DA4399
:1015B000BB681A407B699A404FF0FF317B6901FAA2
:1015C00003F3D9437B680B40134318462437BD46C9
:1015D0005DF8047B7047000080B582B000AF786092
:1015E0007B68013BB3F1807F01D301230FE00A4AFE
:1015F0007B68013B53600F214FF0FF30FFF78EFFF8
:10160000054B00229A60044B07221A6000231846FB
:101610000837BD4680BD00BF10E000E080B582B055
:1016200000AF78607868FFF729FF00BF0837BD4634
:1016300080BD80B586B000AF0346B9607A60FB73A9
:1016400000237B61FFF73EFF78617A68B9687869AB
:10165000FFF78EFF024697F90F3011461846FFF745
:101660005DFF00BF1837BD4680BD80B582B000AFBA
:101670000346FB7197F907301846FFF731FF00BFAB
:101680000837BD4680BD80B582B000AF786078680D
:10169000FFF7A2FF034618460837BD4680BD00008D
:1016A000F0B587B000AFF860B960C7E90023012347
:1016B000FB750023BB7500237B752F4B1B7E012B15
:1016C00001D1022354E02C4B01221A764CF2503007
:1016D00000F0E6F80346FB75FB7D002B44D1FB6868
:1016E000012B02D101237B7507E0FB68022B02D19D
:1016F00002237B7501E004237B750023BB752DE07D
:10170000BB7D5A00BB6802EB030CBB7D1901D7E916
:101710000023C1F12006A1F1200022FA01F403FA0E
:1017200006F6344323FA00F0044323FA01F5A3B28A
:101730001946604600F098F84CF2503000F0B0F8CE
:101740000346FB750D4B1B690C4A23F00103136123
:10175000FB7D002B07D1BB7D0133BB75BA7D7B7D43
:101760009A42CDD300E000BF034B00221A76FB7DE6
:1017700018461C37BD46F0BD9002002000200240F4
:1017800080B483B000AF0023FB710D4B1B6903F0E5
:101790008003002B0DD00A4B0A4A5A60084B0A4AB4
:1017A0005A60074B1B6903F08003002B01D0012313
:1017B000FB71FB7918460C37BD465DF8047B70471A
:1017C0000020024023016745AB89EFCD80B400AF14
:1017D000054B1B69044A43F080031361002318463C
:1017E000BD465DF8047B70470020024080B400AF26
:1017F000094B1B6903F40073002B07D1064B074A02
:101800009A60054B064A9A60002300E001231846BF
:10181000BD465DF8047B7047002002402301674508
:10182000AB89EFCD80B400AF054B1B69044A23F4AC
:101830000073136100231846BD465DF8047B7047B2
:101840000020024080B500AF064B1B69054A43F4F7
:10185000005313614CF2503000F022F80346184652
:1018600080BD00BF0020024080B483B000AF78602C
:101870000B467B80084B0022DA61084B1B69074A44
:1018800043F0010313617B687A881A8000BF0C372C
:10189000BD465DF8047B70479002002000200240A6
:1018A00080B584B000AF7860FFF748F8F86010E0CA
:1018B0007B68B3F1FF3F0CD07B68002B07D0FFF7AC
:1018C0003DF80246FB68D31A7A689A4201D2032394
:1018D0001FE0124BDB6803F00103012BE8D00F4B34
:1018E000DB6803F02003202B02D10C4B2022DA60AE
:1018F0000A4BDB6803F01003102B05D0074BDB68A5
:1019000003F00403042B03D100F00AF8012300E0E4
:10191000002318461037BD4680BD00BF002002409E
:1019200080B483B000AF00237B60144BDB6803F00E
:101930001003102B09D1124BDB6943F00203104A4C
:10194000D3617B6843F010037B600C4BDB6803F0D2
:101950000403042B09D10A4BDB6943F00103084A55
:10196000D3617B6843F004037B60044A7B68D360E7
:1019700000BF0C37BD465DF8047B70470020024075
:101980009002002080B584B000AF786039600123F8
:10199000FB730023BB602E4B1B7E012B01D1022366
:1019A00052E02B4B01221A767B681B68012B15D164
:1019B0004CF25030FFF774FF0346002B40D100F08B
:1019C00025F94CF25030FFF76BFF0346FB73214BB8
:1019D0001B69204A23F00403136131E04CF25030BC
:1019E000FFF75EFF0346002B2AD13B684FF0FF3222
:1019F0001A607B685B68BB6019E0B86800F0F8FAB1
:101A00004CF25030FFF74CFF0346FB73114B1B6940
:101A1000104A23F002031361FB7B002B03D03B68C9
:101A2000BA681A600CE0BB6803F50063BB607B68B2
:101A30009B68DA027B685B681344BA689A42DCD31D
:101A4000034B00221A76FB7B18461037BD4680BD3B
:101A5000900200200020024080B582B000AFAA238F
:101A6000BB710123FB7100F089FA0346BB714CF294
:101A70005030FFF715FF0346FB71FB79002B23D194
:101A8000144B0022DA61144B1B69134A43F0200304
:101A90001361114B1B69104A43F0400313614CF270
:101AA0005030FFF7FDFE0346FB710B4B1B690A4AE2
:101AB00023F020031361FB79002B05D1BB79184675
:101AC00000F094F90346FB71FB7918460837BD46D0
:101AD00080BD00BF900200200020024080B584B08D
:101AE00000AF78600123FB73394B1B7E012B01D1C2
:101AF000022369E0364B01221A767B681B6803F0EB
:101B00000103002B1AD07B685B68012B07D17B682F
:101B10009B68184600F094F80346FB7306E07B6868
:101B20009B68184600F0F8F80346FB73FB7B002B1C
:101B300004D0274B00221A76FB7B45E07B681B68AC
:101B400003F00203002B0ED07B681B7B184600F0CD
:101B50004DF90346FB73FB7B002B04D01C4B00228A
:101B60001A76FB7B30E07B681B6803F00403002BD4
:101B70000ED07B685B7B184600F088F90346FB7348
:101B8000FB7B002B04D0124B00221A76FB7B1BE060
:101B90007B681B6803F00803002B11D07B681A696F
:101BA0007B681B7D1946104600F0A8F90346FB73BD
:101BB000FB7B002B04D0064B00221A76FB7B03E054
:101BC000034B00221A76FB7B18461037BD4680BDBA
:101BD0009002002080B582B000AF78607B68072259
:101BE0001A6000F0BFF902467B689A6000F0C6F9FF
:101BF0000346DAB27B681A7300F0DEF903461A4630
:101C00007B685A7300BF0837BD4680BD80B400AF03
:101C1000094B0022DA61094B1B69084A43F00403AF
:101C20001361064B1B69054A43F04003136100BF73
:101C3000BD465DF8047B7047900200200020024002
:101C400080B584B000AF78600023FB734FF6FF735C
:101C5000BB814FF6FF737B8100F084F902467B68FD
:101C6000DB4313407B607B689BB2DBB2BB817B684C
:101C70001B0A9BB2DBB27B814CF25030FFF710FEA7
:101C80000346FB73FB7B002B3AD1204B0022DA6129
:101C9000FFF7E2FE0346FB73FB7B002B30D11C4BAE
:101CA0001B691B4A43F010031361BB89FF2B0DD046
:101CB000184B1B899AB21749BB8913409BB20B8101
:101CC0004CF25030FFF7ECFD0346FB73FB7B002B1F
:101CD00010D17B89FF2B0DD00E4B5B899AB20D4939
:101CE0007B8913409BB24B814CF25030FFF7D8FDFB
:101CF0000346FB73064B1B69054A23F0100313616F
:101D0000FB7B18461037BD4680BD00BF9002002007
:101D10000020024000F8FF1F80B584B000AF78605B
:101D20000023FB734FF6FF73BB814FF6FF737B817C
:101D300000F018F902467B6813437B607B689BB216
:101D4000DBB2BB817B681B0A9BB2DBB27B814CF2AE
:101D50005030FFF7A5FD0346FB73FB7B002B3AD108
:101D60001F4B0022DA61FFF777FE0346FB73FB7B14
:101D7000002B30D11B4B1B691A4A43F0100313612F
:101D8000BB89FF2B0DD0184B1B899AB21649BB8912
:101D900013439BB20B814CF25030FFF781FD034699
:101DA000FB73FB7B002B10D17B89FF2B0DD00E4BDF
:101DB0005B899AB20C497B8913439BB24B814CF2ED
:101DC0005030FFF76DFD0346FB73064B1B69054A58
:101DD00023F010031361FB7B18461037BD4680BD0E
:101DE000900200200020024000F8FF1F80B584B060
:101DF00000AF0346FB710023FB734CF25030FFF73A
:101E00004FFD0346FB73FB7B002B33D11C4B0022A1
:101E1000DA611C4B1B691B4A43F020031361194B09
:101E20001B69184A43F0400313614CF25030FFF72E
:101E300037FD0346FB73134B1B69124A23F0200343
:101E40001361FB7B002B15D10E4B1B690D4A43F030
:101E5000100313610C4BFA7992B21A804CF2503095
:101E6000FFF71EFD0346FB73064B1B69054A23F073
:101E700010031361FB7B18461037BD4680BD00BFC1
:101E8000900200200020024000F8FF1F80B584B0BF
:101E900000AF0346FB710023FB734CF25030FFF799
:101EA000FFFC0346FB73FB7B002B1BD1104B002276
:101EB000DA61104B1B690F4A43F010031361FB7981
:101EC00063F07703DAB20C4B92B25A804CF2503086
:101ED000FFF7E6FC0346FB73064B1B69054A23F03C
:101EE00010031361FB7B18461037BD4680BD00BF51
:101EF000900200200020024000F8FF1F80B584B04F
:101F000000AF78600B46FB700123FB734CF250303E
:101F1000FFF7C6FC0346FB73FB7B002B18D10F4B6E
:101F20000022DA610E4B1B690D4A43F01003136166
:101F30007B68FA7892B21A804CF25030FFF7B0FC0E
:101F40000346FB73064B1B69054A23F0100313611C
:101F5000FB7B18461037BD4680BD00BF90020020B5
:101F60000020024080B400AF034B1B6A1846BD46F8
:101F70005DF8047B704700BF0020024080B483B04E
:101F800000AF00237B600B4BDB6903F006037B6033
:101F90007B68062B01D1CC2305E07B68002B01D1A7
:101FA000AA2300E0BB2318460C37BD465DF8047B2E
:101FB000704700BF0020024080B483B000AF0B4BDD
:101FC000DB6903F4EE434FF480727A607A6892FA28
:101FD000A2F23A603A68B2FA82F2D2B2D340DBB2ED
:101FE00018460C37BD465DF8047B70470020024060
:101FF00080B483B000AF78600B4B0022DA610B4BEA
:102000001B690A4A43F002031361084A7B68536163
:10201000064B1B69054A43F04003136100BF0C37B0
:10202000BD465DF8047B704790020020002002400E
:1020300080B487B000AF7860396000237B614EE1E7
:102040003B681A6801217B6901FA03F31340FB60C6
:10205000FB68002B00F040813B685B6803F00303E2
:10206000012B05D03B685B6803F00303022B30D1E2
:102070007B689B683B617B695B00032202FA03F388
:10208000DB433A6913403B613B68DA687B695B007C
:1020900002FA03F33A6913433B617B683A699A6039
:1020A0007B685B683B6101227B6902FA03F3DB43D7
:1020B0003A6913403B613B685B681B0903F001020E
:1020C0007B6902FA03F33A6913433B617B683A691F
:1020D0005A603B685B6803F00303032B17D07B68EF
:1020E000DB683B617B695B00032202FA03F3DB439D
:1020F0003A6913403B613B689A687B695B0002FA6E
:1021000003F33A6913433B617B683A69DA603B68E1
:102110005B6803F00303022B23D17B69DA087B6839
:10212000083253F822303B617B6903F007039B00C0
:102130000F2202FA03F3DB433A6913403B613B6829
:102140001A697B6903F007039B0002FA03F33A69FB
:1021500013433B617B69DA087B680832396943F8CD
:1021600022107B681B683B617B695B00032202FADB
:1021700003F3DB433A6913403B613B685B6803F060
:1021800003027B695B0002FA03F33A6913433B6184
:102190007B683A691A603B685B6803F44033002B44
:1021A00000F09A80554B9B69544A43F001039361B8
:1021B000524B9B6903F00103BB60BB68504A7B69CB
:1021C0009B08023352F823303B617B6903F0030321
:1021D0009B000F2202FA03F3DB433A6913403B6191
:1021E0007B68B3F1904F13D07B68464A93420DD081
:1021F0007B68454A934207D07B68444A934201D1A9
:10220000032306E0052304E0022302E0012300E0AB
:1022100000237A6902F00302920093403A69134363
:102220003B6137497B699B0802333A6941F82320B7
:10223000374B1B683B61FB68DB433A6913403B61EA
:102240003B685B6803F48033002B03D03A69FB687A
:1022500013433B612E4A3B6913602D4B5B683B6126
:10226000FB68DB433A6913403B613B685B6803F4FE
:102270000033002B03D03A69FB6813433B61244AC7
:102280003B695360224B9B683B61FB68DB433A69C7
:1022900013403B613B685B6803F48013002B03D061
:1022A0003A69FB6813433B61194A3B699360184BD9
:1022B000DB683B61FB68DB433A6913403B613B6889
:1022C0005B6803F40013002B03D03A69FB681343E7
:1022D0003B610F4A3B69D3607B6901337B613B689B
:1022E0001A687B6922FA03F3002B7FF4A9AE00BFC2
:1022F00000BF1C37BD465DF8047B704700100240EC
:10230000000001400004004800080048000C00489C
:102310000004014080B485B000AF78600B467B803C
:102320007B681A697B881340002B02D00123FB7362
:1023300001E00023FB73FB7B18461437BD465DF8B4
:10234000047B704780B483B000AF78600B467B801D
:1023500013467B707B78002B03D07A887B689A6168
:1023600002E07A887B689A6200BF0C37BD465DF850
:10237000047B704780B485B000AF78600B467B80EB
:102380007B685B69FB607A88FB6813401A04FB6812
:10239000D9437B880B401A437B689A6100BF14378E
:1023A000BD465DF8047B7047F0B58BB006AF786032
:1023B0007B68002B01D10123D0E07B6893F8A93220
:1023C000DBB2002B06D17B68002283F8A822786854
:1023D00007F022FE7B68032283F8A9227B681B6832
:1023E000184603F084F80023FB734CE0FB7B79680C
:1023F0005A1C13469B001344DB000B44013301229B
:102400001A70FB7B79685A1C13469B001344DB004F
:102410000B44FA7B1A70FA7BFB7B98B279681346FF
:102420009B001344DB000B44363302461A80FB7BCF
:1024300079685A1C13469B001344DB000B4403339A
:1024400000221A70FA7B796813469B001344DB0064
:102450000B44383300221A60FA7B796813469B00DC
:102460001344DB000B443C3300221A60FA7B79688A
:1024700013469B001344DB000B44403300221A60D8
:10248000FB7B0133FB73FA7B7B685B689A42ADD3BD
:102490000023FB7344E0FA7B796813469B001344E6
:1024A000DB000B4403F2691300221A70FA7B79688F
:1024B00013469B001344DB000B4403F5B473FA7B13
:1024C0001A70FA7B796813469B001344DB000B44B7
:1024D00003F26B1300221A70FA7B796813469B0093
:1024E0001344DB000B4403F5BC7300221A60FA7B33
:1024F000796813469B001344DB000B4403F5BE735D
:1025000000221A60FA7B796813469B001344DB00B3
:102510000B4403F5C07300221A60FB7B0133FB738D
:10252000FA7B7B685B689A42B5D37B681B683B602B
:102530007E686D4606F110040FCC0FC523682B6032
:10254000331D0ECB386802F0EDFF7B68002283F864
:1025500024207B68012283F8A9220023184614371F
:10256000BD46F0BD80B582B000AF78607B6893F85F
:10257000A832012B01D1022316E07B68012283F8E7
:10258000A8227B681B68184602F09AFF0121786830
:1025900007F0BAFF7B681B68184605F0AFF97B6847
:1025A000002283F8A822002318460837BD4680BDC4
:1025B00080B582B000AF78607B681B68184605F074
:1025C000A8F9034603F40043B3F5004F02D178683D
:1025D00000F0F6FA7B681B68184605F09AF9034686
:1025E00003F48063B3F5806F12D17B681B68B3F886
:1025F00044309AB27B681B6822F4806292B2A3F8DE
:102600004420786807F083FD0021786800F0C7F85F
:102610007B681B68184605F07CF9034603F4804389
:10262000B3F5804F0BD17B681B68B3F844309AB286
:102630007B681B6822F4804292B2A3F844207B6836
:102640001B68184605F065F9034603F40053B3F51B
:10265000005F0BD17B681B68B3F844309AB27B688B
:102660001B6822F4005292B2A3F844207B681B68D6
:10267000184605F04EF9034603F48053B3F5805F26
:1026800026D17B681B68B3F840309AB27B681B6820
:1026900022F0040292B2A3F840207B681B68B3F8D2
:1026A00040309AB27B681B6822F0080292B2A3F80D
:1026B0004020786807F064FD7B681B68B3F84430FD
:1026C0009AB27B681B6822F4805292B2A3F844202D
:1026D0007B681B68184605F01CF9034603F4006389
:1026E000B3F5006F26D17B681B68B3F840309AB20F
:1026F0007B681B6842F0080292B2A3F840207B6816
:102700001B68B3F844309AB27B681B6822F40062FD
:1027100092B2A3F844207B681B68B3F840309AB2A9
:102720007B681B6842F0040292B2A3F840207868EC
:1027300007F00CFD7B681B68184605F0EAF80346B5
:1027400003F40073B3F5007F0ED17B681B68B3F808
:1027500044309AB27B681B6822F4007292B2A3F8EC
:102760004420786807F0C5FC7B681B68184605F0B4
:10277000D0F8034603F48073B3F5807F0BD17B68F8
:102780001B68B3F844309AB27B681B6822F48072ED
:1027900092B2A3F8442000BF0837BD4680BD80B583
:1027A00082B000AF78600B46FB707B6893F8A8326C
:1027B000012B01D1022313E07B68012283F8A822B8
:1027C0007B68FA7883F824207B681B68FA781146C6
:1027D000184605F07FF87B68002283F8A8220023C2
:1027E00018460837BD4680BD80B584B000AF78601C
:1027F000084611461A460346FB700B463B801346BB
:10280000BB700023FB7297F90330002B0EDAFB78C4
:1028100003F007035A1C13469B001344DB007A683D
:102820001344FB60FB6801225A700EE0FB7803F052
:10283000070213469B001344DB0003F5B4737A6868
:102840001344FB60FB6800225A70FB7803F0070317
:10285000DAB2FB681A703A88FB681A61FB68BA78CA
:10286000DA70FB685B78002B04D0FB681B789AB2A7
:10287000FB68DA81BB78022B02D1FB6800221A7157
:102880007B6893F8A832012B01D102230EE07B680C
:10289000012283F8A8227B681B68F968184602F0B9
:1028A00063FE7B68002283F8A822FB7A1846103763
:1028B000BD4680BD80B584B000AF78600B46FB702C
:1028C00097F90330002B0EDAFB7803F007035A1C4C
:1028D00013469B001344DB007A681344FB60FB68DB
:1028E00001225A700EE0FB7803F0070213469B00AA
:1028F0001344DB0003F5B4737A681344FB60FB6890
:1029000000225A70FB7803F00703DAB2FB681A70F2
:102910007B6893F8A832012B01D102230EE07B687B
:10292000012283F8A8227B681B68F968184603F027
:10293000AFF97B68002283F8A822002318461037DD
:10294000BD4680BD80B586B000AFF8607A603B6060
:102950000B46FB72FB7A03F0070213469B001344FD
:10296000DB0003F5B473FA6813447B617B697A6812
:102970005A617B693A689A617B690022DA617B69F6
:1029800000225A70FB7A03F00703DAB27B691A70EF
:10299000FB7A03F00703002B06D1FB681B687969FB
:1029A000184603F062FB05E0FB681B68796918466E
:1029B00003F05BFB002318461837BD4680BD80B48A
:1029C00083B000AF78600B46FB70FB7803F0070222
:1029D000796813469B001344DB000B4403F5C27374
:1029E0001B6818460C37BD465DF8047B704780B500
:1029F00086B000AFF8607A603B600B46FB72FB7AF2
:102A000003F007035A1C13469B001344DB00FA68CB
:102A100013447B617B697A685A617B693A689A6181
:102A20007B69012283F824207B693A681A627B69FA
:102A30000022DA617B6901225A70FB7A03F00703F6
:102A4000DAB27B691A70FB7A03F00703002B06D118
:102A5000FB681B687969184603F007FB05E0FB6813
:102A60001B687969184603F000FB002318461837E5
:102A7000BD4680BD80B584B000AF78600B46FB706A
:102A8000FB7803F007027B685B689A4201D9012357
:102A90003EE097F90330002B0EDAFB7803F00703D2
:102AA0005A1C13469B001344DB007A681344FB60F6
:102AB000FB6801225A700CE0FA7813469B0013441D
:102AC000DB0003F5B4737A681344FB60FB680022F3
:102AD0005A70FB6801229A70FB7803F00703DAB2A0
:102AE000FB681A707B6893F8A832012B01D102238E
:102AF0000EE07B68012283F8A8227B681B68F968D6
:102B0000184604F0E8FD7B68002283F8A822002321
:102B100018461037BD4680BD80B584B000AF7860E0
:102B20000B46FB70FB7803F00F027B685B689A42F0
:102B300001D9012340E097F90330002B0EDAFB782E
:102B400003F007035A1C13469B001344DB007A680A
:102B50001344FB60FB6801225A700EE0FB7803F01F
:102B6000070213469B001344DB0003F5B4737A6835
:102B70001344FB60FB6800225A70FB6800229A70C5
:102B8000FB7803F00703DAB2FB681A707B6893F8EE
:102B9000A832012B01D102230EE07B68012283F8C9
:102BA000A8227B681B68F968184604F0E5FD7B687D
:102BB000002283F8A822002318461037BD4680BDA6
:102BC00080B596B000AF78609BE37B681B68B3F874
:102BD0004430A7F85630B7F85630DBB203F00F0395
:102BE00087F8553097F85530002B40F05E81B7F8E4
:102BF000563003F01003002B50D17B681B681B88F4
:102C00009BB223F4E14323F07003FB817B681A68D5
:102C1000FB896FEA43436FEA53439BB213807B689F
:102C20002833FB647B681B68B3F850309BB21A46AC
:102C3000FB6C1B78DB0013447A681268134403F2C0
:102C400002431B88C3F30902FB6CDA61FB6C5A690F
:102C5000FB6CDB691A44FB6C5A610021786807F051
:102C60002EFA7B6893F82430DBB2002B00F0498306
:102C7000FB6C9B69002B40F044837B6893F8243005
:102C8000DBB263F07F03DAB27B681B6892B2A3F811
:102C90004C207B68002283F8242032E37B6803F514
:102CA000B473FB647B681B681B88A7F85230B7F8C5
:102CB000523003F40063002B32D07B681B68B3F8FA
:102CC00050309BB21A46FB6C1B78DB0013447A68C9
:102CD0001268134403F206431B88C3F30902FB6C1A
:102CE000DA617B6818687B6803F52C71FB6CDA8805
:102CF000FB6CDB699BB204F05EFE7B681B681B8883
:102D00009AB240F68F7313403B827B681B683A8A05
:102D100042F0800292B21A80786807F0A3F9F0E2DC
:102D2000B7F95230002B80F2EC827B681B681B885D
:102D30009AB240F68F731340FB837B681B68FA8B53
:102D400042F0800292B21A807B681B68B3F8503060
:102D50009BB21A46FB6C1B78DB0013447A6812683E
:102D6000134403F206431B88C3F30902FB6CDA61C8
:102D7000FB6CDB69002B19D0FB6C5B69002B15D059
:102D80007B681868FB6C5969FB6CDA88FB6CDB6943
:102D90009BB204F010FEFB6C5A69FB6CDB691A44B1
:102DA000FB6C5A610021786807F06EF97B681B683C
:102DB0001B889BB203F40063002B40F0A2827B6867
:102DC0001B68BB617B681B68B3F850309BB21A4626
:102DD000BB691344BB61BB6903F206437B61FB6CB7
:102DE0001B69002B12D17B691B889BB223F4F8432B
:102DF0009AB27B691A807B691B889BB26FEA434356
:102E00006FEA53439AB27B691A802FE0FB6C1B690F
:102E10003E2B13D8FB6C1B695B087B64FB6C1B6946
:102E200003F00103002B02D07B6C01337B647B6CCD
:102E30009BB29B029AB27B691A8017E0FB6C1B69FC
:102E40005B097B64FB6C1B6903F01F03002B02D141
:102E50007B6C013B7B647B6C9BB29B029BB26FEAF9
:102E600043436FEA53439AB27B691A807B681B68BD
:102E70001B889BB223F4804323F070037B827B8A00
:102E800083F480537B827B8A83F400537B827B684C
:102E90001A687B8A43F07F4343F47F0343F4004383
:102EA00043F080039BB213802BE27B681B681A46B9
:102EB00097F855309B0013441B88A7F85230B7F998
:102EC0005230002B80F2F6807B681B681A4697F818
:102ED00055309B0013441B889AB240F68F73134001
:102EE000A7F850307B681B681A4697F855309B004E
:102EF0001344B7F8502042F0800292B21A8097F83B
:102F0000552013469B001344DB0003F5B4737A6825
:102F10001344FB64FB6C1B7B002B23D17B681B6879
:102F2000B3F850309BB21A46FB6C1B78DB0013449D
:102F30007A681268134403F206431B88C3F309033B
:102F4000A7F84830B7F84830002B00F08E807B6837
:102F50001868FB6C5969FB6CDA88B7F8483004F0E4
:102F60002AFD82E0FB6CDB78022B0AD1B7F85230E5
:102F70001A46F96C786800F0D2F90346A7F8483091
:102F800073E07B681B681A46FB6C1B789B0013443C
:102F90001B889BB223F4E04323F07003A7F84A3068
:102FA0007B681B681A46FB6C1B789B001A44B7F8B9
:102FB0004A3043F07F4343F47F0343F4004343F03C
:102FC000C0039BB213807B681B681A46FB6C1B789E
:102FD0009B0013441B889BB203F48043002B22D038
:102FE0007B681B68B3F850309BB21A46FB6C1B78A9
:102FF000DB0013447A681268134403F202431B880F
:10300000C3F30903A7F84830B7F84830002B2CD099
:103010007B681868FB6C5969FB6C1A89B7F84830F3
:1030200004F0C9FC21E07B681B68B3F850309BB208
:103030001A46FB6C1B78DB0013447A681268134451
:1030400003F206431B88C3F30903A7F84830B7F817
:103050004830002B09D07B681868FB6C5969FB6C01
:103060005A89B7F8483004F0A6FCFB6CDA69B7F867
:1030700048301A44FB6CDA61FB6C5A69B7F8483087
:103080001A44FB6C5A61FB6C9B69002B05D0B7F8A6
:103090004820FB6C1B699A4206D2FB6C1B781946D0
:1030A000786806F0F1FF05E07B681B68F96C18464C
:1030B00002F0DBFFB7F8523003F08003002B00F082
:1030C000208197F855305A1C13469B001344DB00AF
:1030D0007A681344FB647B681B681A4697F855307E
:1030E0009B0013441B889BB223F4E14323F070033D
:1030F000A7F842307B681B681A4697F855309B004A
:103100001A44B7F842306FEA43436FEA53439BB225
:103110001380FB6CDB78022B00F09D80FB6C00229F
:103120009A61B7F8523003F04003002B46D0FB6C95
:103130005B78002B26D17B681B687B627B681B68F1
:10314000B3F850309BB21A467B6A13447B62FB6C27
:103150001B78DA007B6A134403F202433B623B6A4A
:103160001B889BB223F4F8439AB23B6A1A803B6AED
:103170001B889BB26FEA43436FEA53439AB23B6AA0
:103180001A8061E0FB6C5B78012B5DD17B681B686A
:10319000FB627B681B68B3F850309BB21A46FB6A2F
:1031A0001344FB62FB6C1B78DA00FB6A134403F2E6
:1031B0000243BB62BB6A00221A8045E07B681B6841
:1031C000FB63FB6C5B78002B26D17B681B687B6301
:1031D0007B681B68B3F850309BB21A467B6B134474
:1031E0007B63FB6C1B78DA007B6B134403F20643B2
:1031F0003B633B6B1B889BB223F4F8439AB23B6B57
:103200001A803B6B1B889BB26FEA43436FEA5343C0
:103210009AB23B6B1A8017E0FB6C5B78012B13D1E1
:103220007B681B68B3F850309BB21A46FB6B1344A3
:10323000FB63FB6C1B78DA00FB6B134403F2064361
:10324000BB63BB6B00221A80FB6C1B781946786845
:1032500006F035FF55E0FB6CDB78022B4AD1B7F85E
:10326000523003F48073002B44D17B681B68B3F8A1
:1032700050309BB21A46FB6C1B78DB0013447A6813
:103280001268134403F202431B88C3F30903A7F82F
:103290004030FB6C9A69B7F840309A4207D9FB6C12
:1032A0009A69B7F84030D21AFB6C9A6102E0FB6C65
:1032B00000229A61FB6C9B69002B06D1FB6C1B788A
:1032C0001946786806F0FBFE1BE0FB6C5A69B7F8FC
:1032D00040301A44FB6C5A61FB6CDA69B7F8403035
:1032E0001A44FB6CDA617B681B68F96C184602F0C3
:1032F000BCFE06E0B7F852301A46F96C786800F068
:1033000017F97B681B68B3F844309BB21BB2002BE3
:10331000FFF65BAC002318465837BD4680BD80B52C
:1033200088B000AFF860B9601346FB80FB8803F4F7
:103330008043002B7CD0FB681B68B3F850309BB2F5
:103340001A46BB681B78DB001344FA681268134402
:1033500003F202431B88C3F309037B83BB689A69AA
:103360007B8B9A4206D3BB689A697B8BD21ABB6867
:103370009A6102E0BB6800229A61BB689B69002BDE
:1033800023D1FB681B681A46BB681B789B0013445B
:103390001B889BB223F4804323F070033B833B8B59
:1033A00083F400533B83FB681B681A46BB681B7899
:1033B0009B001A443B8B43F07F4343F47F0343F469
:1033C000004343F080039BB21380FB8803F040036B
:1033D000002B1FD0FB681B681A46BB681B789B003C
:1033E00013441B889BB223F4E04323F07003FB8259
:1033F000FB681B681A46BB681B789B001A44FB8A53
:1034000043F07F4343F47F0343F4004343F0C0039E
:103410009BB213807B8B002B00F08580FB681868C3
:10342000BB685969BB681A897B8B04F0C4FA7AE0DF
:10343000FB681B68B3F850309BB21A46BB681B7818
:10344000DB001344FA681268134403F206431B8836
:10345000C3F309037B83BB689A697B8B9A4206D3CB
:10346000BB689A697B8BD21ABB689A6102E0BB6821
:1034700000229A61BB689B69002B23D1FB681B6803
:103480001A46BB681B789B0013441B889BB223F42D
:10349000804323F07003FB83FB8B83F40053FB8397
:1034A000FB681B681A46BB681B789B001A44FB8BA1
:1034B00043F07F4343F47F0343F4004343F080032E
:1034C0009BB21380FB8803F04003002B1FD1FB68E5
:1034D0001B681A46BB681B789B0013441B889BB271
:1034E00023F4E04323F07003BB83FB681B681A4698
:1034F000BB681B789B001A44BB8B43F07F4343F4AB
:103500007F0343F4004343F0C0039BB213807B8BE3
:10351000002B08D0FB681868BB685969BB685A89DA
:103520007B8B04F048FA7B8B18462037BD4680BD64
:1035300080B5A2B000AFF860B9601346FB80FB888D
:1035400003F04003002B00F0C581FB681B68B3F853
:1035500050309BB21A46BB681B78DB001344FA68F4
:103560001268134403F202431B88C3F30903A7F84C
:103570004E30BB689A69B7F84E309A4207D9BB689B
:103580009A69B7F84E30D21ABB689A6102E0BB68FC
:1035900000229A61BB689B69002B40F0B980BB6830
:1035A0005B78002B26D1FB681B68BB62FB681B683D
:1035B000B3F850309BB21A46BB6A1344BB62BB6877
:1035C0001B78DA00BB6A134403F202437B627B6A16
:1035D0001B889BB223F4F8439AB27B6A1A807B6AF9
:1035E0001B889BB26FEA43436FEA53439AB27B6AEC
:1035F0001A801AE0BB685B78012B16D1FB681B6848
:103600003B63FB681B68B3F850309BB21A463B6BB8
:1036100013443B63BB681B78DA003B6B134403F233
:103620000243FB62FB6A00221A80FB681B683B6254
:10363000BB685B78002B26D1FB681B68BB61FB680D
:103640001B68B3F850309BB21A46BB691344BB6188
:10365000BB681B78DA00BB69134403F206437B6145
:103660007B691B889BB223F4F8439AB27B691A806A
:103670007B691B889BB26FEA43436FEA53439AB25C
:103680007B691A8017E0BB685B78012B13D1FB685C
:103690001B68B3F850309BB21A463B6A13443B6236
:1036A000BB681B78DA003B6A134403F20643FB61F4
:1036B000FB6900221A80BB681B781946F86806F07F
:1036C000FEFCFB8803F48043002B00F0D282FB68F1
:1036D0001B681A46BB681B789B0013441B889BB26F
:1036E00023F4E04323F070037B82FB681B681A46D7
:1036F000BB681B789B001A447B8A43F07F4343F4EA
:103700007F0343F4404343F080039BB21380B0E255
:10371000FB8803F48043002B21D0FB681B681A460A
:10372000BB681B789B0013441B889BB223F4E043C7
:1037300023F07003A7F84430FB681B681A46BB6887
:103740001B789B001A44B7F8443043F07F4343F49E
:103750007F0343F4404343F080039BB21380BB6874
:1037600093F82430012B40F08482BB685A69B7F883
:103770004E301A44BB685A61BB68DA69B7F84E30FC
:103780001A44BB68DA61BB681A6ABB681B699A4253
:1037900009D3BB681B693B65BB681A6A3B6DD21ACB
:1037A000BB681A6215E0BB681B6A002B07D1B7F82B
:1037B0004E303B65BB68002283F8242009E0BB68DB
:1037C000002283F82420BB681B6A3B65BB6800228B
:1037D0001A62BB685B78002B55D1FB681B68BB6322
:1037E000FB681B68B3F850309BB21A46BB6B13449E
:1037F000BB63BB681B78DA00BB6B134403F2024364
:103800007B633B6D002B12D17B6B1B889BB223F437
:10381000F8439AB27B6B1A807B6B1B889BB26FEA72
:1038200043436FEA53439AB27B6B1A8047E03B6D88
:103830003E2B11D83B6D5B08BB643B6D03F001036D
:10384000002B02D0BB6C0133BB64BB6C9BB29B02F0
:103850009AB27B6B1A8032E03B6D5B09BB643B6DB7
:1038600003F01F03002B02D1BB6C013BBB64BB6C9C
:103870009BB29B029BB26FEA43436FEA53439AB2F7
:103880007B6B1A801BE0BB685B78012B17D1FB6850
:103890001B683B64FB681B68B3F850309BB21A4648
:1038A0003B6C13443B64BB681B78DA003B6C1344ED
:1038B00003F20243FB633B6D9AB2FB6B1A80FB6819
:1038C0001868BB685969BB681A893B6D9BB204F0E4
:1038D00030F8CEE1FB681B68B3F850309BB21A4653
:1038E000BB681B78DB001344FA681268134403F2C8
:1038F00006431B88C3F30903A7F84E30BB689A69D7
:10390000B7F84E309A4207D3BB689A69B7F84E3081
:10391000D21ABB689A6102E0BB6800229A61BB6858
:103920009B69002B40F0C480BB685B78002B26D1DC
:10393000FB681B68FB66FB681B68B3F850309BB2E2
:103940001A46FB6E1344FB66BB681B78DA00FB6EFD
:10395000134403F20243BB66BB6E1B889BB223F485
:10396000F8439AB2BB6E1A80BB6E1B889BB26FEA9B
:1039700043436FEA53439AB2BB6E1A801AE0BB68A6
:103980005B78012B16D1FB681B687B67FB681B68A3
:10399000B3F850309BB21A467B6F13447B67BB6809
:1039A0001B78DA007B6F134403F202433B673B6FE3
:1039B00000221A80FB681B68BB67BB685B78002B22
:1039C0002FD1FB681B68C7F88030FB681B68B3F811
:1039D00050309BB21A46D7F880301344C7F8803075
:1039E000BB681B78DA00D7F88030134403F2064333
:1039F000C7F88430D7F884301B889BB223F4F8438F
:103A00009AB2D7F884301A80D7F884301B889BB2DA
:103A10006FEA43436FEA53439AB2D7F884301A806F
:103A200017E0BB685B78012B13D1FB681B68B3F808
:103A300050309BB21A46BB6F1344BB67BB681B7800
:103A4000DA00BB6F134403F20643FB67FB6F0022EF
:103A50001A80BB681B781946F86806F030FBFB88B3
:103A600003F48043002B40F00481FB681B681A4676
:103A7000BB681B789B0013441B889BB223F4E04374
:103A800023F07003A7F84630FB681B681A46BB6832
:103A90001B789B001A44B7F8463043F07F4343F449
:103AA0007F0343F4404343F080039BB21380E0E084
:103AB000FB8803F48043002B21D1FB681B681A4666
:103AC000BB681B789B0013441B889BB223F4E04324
:103AD00023F07003A7F84C30FB681B681A46BB68DC
:103AE0001B789B001A44B7F84C3043F07F4343F4F3
:103AF0007F0343F4404343F080039BB21380BB68D1
:103B000093F82430012B40F0B480BB685A69B7F8B1
:103B10004E301A44BB685A61BB68DA69B7F84E3058
:103B20001A44BB68DA61BB681A6ABB681B699A42AF
:103B300009D3BB681B693B65BB681A6A3B6DD21A27
:103B4000BB681A6215E0BB681B6A002B07D1B7F887
:103B50004E303B65BB68002283F8242009E0BB6837
:103B60001B6A3B65BB6800221A62BB68002283F8AF
:103B70002420FB681B687B66BB685B78002B55D1F3
:103B8000FB681B68FB65FB681B68B3F850309BB291
:103B90001A46FB6D1344FB65BB681B78DA00FB6DAE
:103BA000134403F20643BB653B6D002B12D1BB6D82
:103BB0001B889BB223F4F8439AB2BB6D1A80BB6D8D
:103BC0001B889BB26FEA43436FEA53439AB2BB6DC3
:103BD0001A8044E03B6D3E2B11D83B6D5B087B6542
:103BE0003B6D03F00103002B02D07B6D01337B653D
:103BF0007B6D9BB29B029AB2BB6D1A802FE03B6D2E
:103C00005B097B653B6D03F01F03002B02D17B6DCD
:103C1000013B7B657B6D9BB29B029BB26FEA43438A
:103C20006FEA53439AB2BB6D1A8018E0BB685B78A9
:103C3000012B14D1FB681B68B3F850309BB21A46B5
:103C40007B6E13447B66BB681B78DA007B6E134483
:103C500003F206433B663B6D9AB23B6E1A80FB68EB
:103C60001868BB685969BB685A893B6D9BB203F001
:103C700060FEFB681B681A46BB681B789B001344F8
:103C80001B889BB223F4E04323F040033B823B8A32
:103C900083F010033B823B8A83F020033B82FB6866
:103CA0001B681A46BB681B789B001A443B8A43F08A
:103CB0007F4343F47F0343F4004343F080039BB20C
:103CC0001380002318468837BD4680BD80B487B076
:103CD00000AFF8607B600B467B8113463B817B899C
:103CE00003F080039BB2002B0BD07B8903F007030A
:103CF0005A1C13469B001344DB00FA6813447B6193
:103D000009E07A8913469B001344DB0003F5B47382
:103D1000FA6813447B613B89002B07D17B69002241
:103D20001A737B689AB27B69DA800BE07B690122A7
:103D30001A737B689AB27B691A817B681B0C9AB2F2
:103D40007B695A81002318461C37BD465DF8047B09
:103D50007047000080B5ADF5007D00AF07F500733A
:103D6000A3F5FE73186007F50073A3F5FE731B68D7
:103D7000002B02D1012301F023B807F50073A3F54E
:103D8000FE731B681B6803F00103002B00F07D81AC
:103D9000BC4B5B6803F00C03042B0CD0B94B5B6885
:103DA00003F00C03082B5CD1B64B5B6803F4803343
:103DB000B3F5803F55D14FF40033C7F8F031D7F851
:103DC000F03193FAA3F3C7F8EC31D7F8EC31B3FA3A
:103DD00083F3DBB25B09DBB243F00103DBB2012BFF
:103DE00002D1A84B1B6815E04FF40033C7F8E83147
:103DF000D7F8E83193FAA3F3C7F8E4314FF400336E
:103E0000C7F8E031D7F8E03193FAA3F3C7F8DC3113
:103E10009C4B5B6A4FF40032C7F8D821D7F8D82101
:103E200092FAA2F2C7F8D421D7F8D421B2FA82F2DA
:103E3000D2B242F02002D2B202F01F02012101FAF6
:103E400002F21340002B00F01F8107F50073A3F569
:103E5000FE731B685B68002B40F01681012300F0A5
:103E6000AFBF07F50073A3F5FE731B685B68B3F57E
:103E7000803F06D1834B1B68824A43F48033136032
:103E800036E007F50073A3F5FE731B685B68002B33
:103E90000CD17C4B1B687B4A23F480331360794B35
:103EA0001B68784A23F48023136021E007F5007330
:103EB000A3F5FE731B685B68B3F5A02F0CD1714BA3
:103EC0001B68704A43F4802313606E4B1B686D4A75
:103ED00043F4803313600BE06A4B1B68694A23F498
:103EE00080331360674B1B68664A23F4802313609A
:103EF000644BDB6A23F00F0207F50073A3F5FE7332
:103F00001B689B685F491343CB6207F50073A3F5F9
:103F1000FE731B685B68002B59D0FCF70FFDC7F8D8
:103F2000F8010AE0FCF70AFD0246D7F8F831D31A87
:103F3000642B02D9032300F043BF4FF40033C7F8CA
:103F4000D031D7F8D03193FAA3F3C7F8CC31D7F8F2
:103F5000CC31B3FA83F3DBB25B09DBB243F001038C
:103F6000DBB2012B02D1474B1B6815E04FF4003345
:103F7000C7F8C831D7F8C83193FAA3F3C7F8C431EA
:103F80004FF40033C7F8C031D7F8C03193FAA3F328
:103F9000C7F8BC313B4B5B6A4FF40032C7F8B8211D
:103FA000D7F8B82192FAA2F2C7F8B421D7F8B42111
:103FB000B2FA82F2D2B242F02002D2B202F01F0272
:103FC000012101FA02F21340002BABD05DE0FCF7B7
:103FD000B5FCC7F8F8010AE0FCF7B0FC0246D7F8D8
:103FE000F831D31A642B02D9032300F0E9BE4FF451
:103FF0000033C7F8B031D7F8B03193FAA3F3C7F85C
:10400000AC31D7F8AC31B3FA83F3DBB25B09DBB286
:1040100043F00103DBB2012B02D11A4B1B6815E000
:104020004FF40033C7F8A831D7F8A83193FAA3F3B7
:10403000C7F8A4314FF40033C7F8A031D7F8A03146
:1040400093FAA3F3C7F89C310E4B5B6A4FF400322E
:10405000C7F89821D7F8982192FAA2F2C7F89421CC
:10406000D7F89421B2FA82F2D2B242F02002D2B250
:1040700002F01F02012101FA02F21340002BABD122
:1040800003E000BF0010024000BF07F50073A3F576
:10409000FE731B681B6803F00203002B00F07D8198
:1040A000A64B5B6803F00C03002B0BD0A34B5B68A3
:1040B00003F00C03082B72D1A04B5B6803F4803330
:1040C000002B6CD10223C7F89031D7F8903193FAC6
:1040D000A3F3C7F88C31D7F88C31B3FA83F3DBB292
:1040E0005B09DBB243F00103DBB2012B02D1934B3E
:1040F0001B6813E00223C7F88831D7F8883193FA98
:10410000A3F3C7F884310223C7F88031D7F8803190
:1041100093FAA3F3C7F87C31884B5B6A0222C7F895
:104120007821D7F8782192FAA2F2C7F87421D7F84B
:104130007421B2FA82F2D2B242F02002D2B202F07C
:104140001F02012101FA02F21340002B0AD007F5E9
:104150000073A3F5FE731B681B69012B02D00123BA
:1041600000F02EBE754B1B6823F0F80207F50073B4
:10417000A3F5FE731B685B69F821C7F87011D7F8C7
:10418000701191FAA1F1C7F86C11D7F86C11B1FA5E
:1041900081F1C9B28B40694913430B60FDE007F51B
:1041A0000073A3F5FE731B681B69002B00F0888069
:1041B0000123C7F86831D7F8683193FAA3F3C7F839
:1041C0006431D7F86431B3FA83F3DBB203F184537B
:1041D00003F584139B001A4601231360FCF7AEFB22
:1041E000C7F8F8010AE0FCF7A9FB0246D7F8F83156
:1041F000D31A022B02D9032300F0E2BD0223C7F831
:104200006031D7F8603193FAA3F3C7F85C31D7F87F
:104210005C31B3FA83F3DBB25B09DBB243F0010339
:10422000DBB2012B02D1454B1B6813E00223C7F818
:104230005831D7F8583193FAA3F3C7F85431022311
:10424000C7F85031D7F8503193FAA3F3C7F84C317F
:104250003A4B5B6A0222C7F84821D7F8482192FA04
:10426000A2F2C7F84421D7F84421B2FA82F2D2B2BE
:1042700042F02002D2B202F01F02012101FA02F242
:104280001340002BAFD02D4B1B6823F0F80207F52D
:104290000073A3F5FE731B685B69F821C7F8401132
:1042A000D7F8401191FAA1F1C7F83C11D7F83C11A9
:1042B000B1FA81F1C9B28B40204913430B606CE025
:1042C0000123C7F83831D7F8383193FAA3F3C7F888
:1042D0003431D7F83431B3FA83F3DBB203F18453CA
:1042E00003F584139B001A4600231360FCF726FB9A
:1042F000C7F8F8010AE0FCF721FB0246D7F8F831CD
:10430000D31A022B02D9032300F05ABD0223C7F8A7
:104310003031D7F8303193FAA3F3C7F82C31D7F8FE
:104320002C31B3FA83F3DBB25B09DBB243F0010358
:10433000DBB2012B04D1014B1B6815E000100240D9
:104340000223C7F82831D7F8283193FAA3F3C7F826
:1043500024310223C7F82031D7F8203193FAA3F390
:10436000C7F81C31C84B5B6A0222C7F81821D7F87E
:10437000182192FAA2F2C7F81421D7F81421B2FA40
:1043800082F2D2B242F02002D2B202F01F02012128
:1043900001FA02F21340002BADD107F50073A3F52B
:1043A000FE731B681B6803F00803002B00F01081EC
:1043B00007F50073A3F5FE731B689B69002B79D08A
:1043C0000123C7F81031D7F8103193FAA3F3C7F8D7
:1043D0000C31D7F80C31B3FA83F3DBB21A46AB4B8E
:1043E00013449B001A4601231360FCF7A7FAC7F891
:1043F000F8010AE0FCF7A2FA0246D7F8F831D31A1E
:10440000022B02D9032300F0DBBC0223C7F80831DA
:10441000D7F8083193FAA3F3C7F8043107F500730E
:10442000A3F5807302221A6007F50073A3F5807369
:104430001B6893FAA3F207F50073A3F582731A6061
:1044400007F50073A3F5847302221A6007F5007361
:10445000A3F584731B6893FAA3F207F50073A3F521
:1044600086731A60884B5A6A07F50073A3F5887340
:104470000221196007F50073A3F588731B6893FA8E
:10448000A3F107F50073A3F58A73196007F50073AC
:10449000A3F58A731B68B3FA83F3DBB243F06003BE
:1044A000DBB203F01F03012101FA03F31340002BD9
:1044B000A0D08DE007F50073A3F58C7301221A607C
:1044C00007F50073A3F58C731B6893FAA3F207F545
:1044D0000073A3F58E731A6007F50073A3F58E734E
:1044E0001B68B3FA83F3DBB21A46684B13449B0094
:1044F0001A4600231360FCF721FAC7F8F8010AE016
:10450000FCF71CFA0246D7F8F831D31A022B02D96D
:10451000032300F055BC07F50073A3F59073022246
:104520001A6007F50073A3F590731B6893FAA3F262
:1045300007F50073A3F592731A6007F50073A3F5EE
:10454000947302221A6007F50073A3F594731B6835
:1045500093FAA3F207F50073A3F596731A6007F5B3
:104560000073A3F5987302221A6007F50073A3F590
:1045700098731B6893FAA3F207F50073A3F59A7377
:104580001A60414B5A6A07F50073A3F59C73022128
:10459000196007F50073A3F59C731B6893FAA3F1E8
:1045A00007F50073A3F59E73196007F50073A3F573
:1045B0009E731B68B3FA83F3DBB243F06003DBB294
:1045C00003F01F03012101FA03F31340002B97D1DD
:1045D00007F50073A3F5FE731B681B6803F0040363
:1045E000002B00F0A181002387F8FF31264BDB6907
:1045F00003F08053002B16D1234BDB69224A43F092
:104600008053D361204BDB6903F0805207F50073C0
:10461000A3F5FC731A6007F50073A3F5FC731B6820
:10462000012387F8FF311A4B1B6803F48073002BBA
:104630001AD1174B1B68164A43F480731360FCF7BA
:104640007DF9C7F8F80109E0FCF778F90246D7F8D8
:10465000F831D31A642B01D90323B1E30C4B1B6847
:1046600003F48073002BEFD007F50073A3F5FE73FE
:104670001B68DB68012B0DD1034B1B6A024A43F018
:10468000010313623CE000BF001002402081901043
:104690000070004007F50073A3F5FE731B68DB682C
:1046A000002B0CD1C14B1B6AC04A23F001031362DB
:1046B000BE4B1B6ABD4A23F00403136220E007F5DA
:1046C0000073A3F5FE731B68DB68052B0CD1B74B99
:1046D0001B6AB64A43F004031362B44B1B6AB34A25
:1046E00043F0010313620BE0B04B1B6AAF4A23F0A7
:1046F00001031362AD4B1B6AAC4A23F0040313623F
:1047000007F50073A3F5FE731B68DB68002B00F050
:104710008180FCF713F9C7F8F8010BE0FCF70EF9FC
:104720000246D7F8F831D31A41F28832934201D9C0
:10473000032345E307F50073A3F5A07302221A6073
:1047400007F50073A3F5A0731B6893FAA3F207F5AE
:104750000073A3F5A2731A6007F50073A3F5A473A1
:1047600002221A6007F50073A3F5A4731B6893FA7D
:10477000A3F207F50073A3F5A6731A6007F500739B
:10478000A3F5A6731B68B3FA83F3DBB25B09DBB254
:1047900043F00203DBB2022B02D1844B1B6A13E00D
:1047A00007F50073A3F5A87302221A6007F50073DA
:1047B000A3F5A8731B6893FAA3F207F50073A3F59A
:1047C000AA731A60794B5B6A07F50072A2F5AC72A6
:1047D0000221116007F50072A2F5AC72126892FA1C
:1047E000A2F107F50072A2F5AE72116007F5007232
:1047F000A2F5AE721268B2FA82F2D2B242F0400270
:10480000D2B202F01F02012101FA02F21340002B82
:1048100084D07FE0FCF792F8C7F8F8010BE0FCF7D2
:104820008DF80246D7F8F831D31A41F28832934214
:1048300001D90323C4E207F50073A3F5B073022284
:104840001A6007F50073A3F5B0731B6893FAA3F21F
:1048500007F50073A3F5B2731A6007F50073A3F5AB
:10486000B47302221A6007F50073A3F5B4731B68D2
:1048700093FAA3F207F50073A3F5B6731A6007F570
:104880000073A3F5B6731B68B3FA83F3DBB25B095D
:10489000DBB243F00203DBB2022B02D1434B1B6AB3
:1048A00013E007F50073A3F5B87302221A6007F549
:1048B0000073A3F5B8731B6893FAA3F207F50073AE
:1048C000A3F5BA731A60394B5B6A07F50072A2F55B
:1048D000BC720221116007F50072A2F5BC72126869
:1048E00092FAA2F107F50072A2F5BE72116007F507
:1048F0000072A2F5BE721268B2FA82F2D2B242F02F
:104900004002D2B202F01F02012101FA02F213406A
:10491000002B84D197F8FF31012B05D1234BDB69A4
:10492000224A23F08053D36107F50073A3F5FE7389
:104930001B68DB69002B00F042821C4B5B6803F0B4
:104940000C03082B00F0138207F50073A3F5FE7328
:104950001B68DB69022B40F0628107F50073A3F549
:10496000C0734FF080721A6007F50073A3F5C0732F
:104970001B6893FAA3F207F50073A3F5C2731A60DC
:1049800007F50073A3F5C2731B68B3FA83F3DBB2B8
:1049900003F1845303F584139B001A46002313602C
:1049A000FBF7CCFFC7F8F8010CE000BF0010024095
:1049B000FBF7C4FF0246D7F8F831D31A022B01D90E
:1049C0000323FDE107F50073A3F5C4734FF00072F4
:1049D0001A6007F50073A3F5C4731B6893FAA3F27A
:1049E00007F50073A3F5C6731A6007F50073A3F506
:1049F000C6731B68B3FA83F3DBB25B09DBB243F027
:104A00000103DBB2012B02D1B04B1B6827E007F595
:104A10000073A3F5C8734FF000721A6007F50073B6
:104A2000A3F5C8731B6893FAA3F207F50073A3F507
:104A3000CA731A6007F50073A3F5CC734FF00072C8
:104A40001A6007F50073A3F5CC731B6893FAA3F201
:104A500007F50073A3F5CE731A609C4B5B6A07F5EC
:104A60000072A2F5D0724FF00071116007F500726C
:104A7000A2F5D072126892FAA2F107F50072A2F5BF
:104A8000D272116007F50072A2F5D2721268B2FA02
:104A900082F2D2B242F02002D2B202F01F02012111
:104AA00001FA02F21340002B82D1884B5B6823F499
:104AB000741207F50073A3F5FE731B68596A07F5B6
:104AC0000073A3F5FE731B681B6A0B437F491343F6
:104AD0004B6007F50073A3F5D4734FF080721A6032
:104AE00007F50073A3F5D4731B6893FAA3F207F5D7
:104AF0000073A3F5D6731A6007F50073A3F5D67398
:104B00001B68B3FA83F3DBB203F1845303F5841318
:104B10009B001A4601231360FBF710FFC7F8F8014A
:104B200009E0FBF70BFF0246D7F8F831D31A022B46
:104B300001D9032344E107F50073A3F5D8734FF0BF
:104B400000721A6007F50073A3F5D8731B6893FA17
:104B5000A3F207F50073A3F5DA731A6007F5007383
:104B6000A3F5DA731B68B3FA83F3DBB25B09DBB23C
:104B700043F00103DBB2012B02D1544B1B6827E049
:104B800007F50073A3F5DC734FF000721A6007F5A8
:104B90000073A3F5DC731B6893FAA3F207F50073A7
:104BA000A3F5DE731A6007F50073A3F5E0734FF009
:104BB00000721A6007F50073A3F5E0731B6893FA9F
:104BC000A3F207F50073A3F5E2731A603F4B5B6A2B
:104BD00007F50072A2F5E4724FF00071116007F55D
:104BE0000072A2F5E472126892FAA2F107F500725F
:104BF000A2F5E672116007F50072A2F5E67212687E
:104C0000B2FA82F2D2B242F02002D2B202F01F0215
:104C1000012101FA02F21340002B82D0CFE007F508
:104C20000073A3F5E8734FF080721A6007F5007304
:104C3000A3F5E8731B6893FAA3F207F50073A3F5D5
:104C4000EA731A6007F50073A3F5EA731B68B3FAF9
:104C500083F3DBB203F1845303F584139B001A46FC
:104C600000231360FBF76AFEC7F8F80109E0FBF7C1
:104C700065FE0246D7F8F831D31A022B01D9032377
:104C80009EE007F50073A3F5EC734FF000721A6015
:104C900007F50073A3F5EC731B6893FAA3F207F50D
:104CA0000073A3F5EE731A6007F50073A3F5EE73B6
:104CB0001B68B3FA83F3DBB25B09DBB243F0010399
:104CC000DBB2012B04D1014B1B6829E0001002402C
:104CD00007F50073A3F5F0734FF000721A6007F543
:104CE0000073A3F5F0731B6893FAA3F207F5007342
:104CF000A3F5F2731A6007F50073A3F5F4734FF090
:104D000000721A6007F50073A3F5F4731B6893FA39
:104D1000A3F207F50073A3F5F6731A602B4B5B6AD9
:104D200007F50072A2F5F8724FF00071116007F5F7
:104D30000072A2F5F872126892FAA2F107F50072F9
:104D4000A2F5FA72116007F50072A2F5FA72126804
:104D5000B2FA82F2D2B242F02002D2B202F01F02C4
:104D6000012101FA02F21340002B80D127E007F560
:104D70000073A3F5FE731B68DB69012B01D10123CE
:104D80001EE0124B5B68C7F8F431D7F8F43103F436
:104D9000803207F50073A3F5FE731B681B6A9A4205
:104DA0000BD1D7F8F43103F4701207F50073A3F5B3
:104DB000FE731B685B6A9A4201D0012300E0002366
:104DC000184607F50077BD4680BD00BF00100240C1
:104DD00080B59EB000AF7860396000237B677B6848
:104DE000002B01D1012362E1904B1B6803F0070304
:104DF0003A689A4210D98D4B1B6823F007028B4901
:104E00003B6813430B60894B1B6803F007033A6848
:104E10009A4201D001234AE17B681B6803F0020338
:104E2000002B08D0824B5B6823F0F0027B689B6804
:104E30007F4913434B607B681B6803F00103002B21
:104E400000F0DC807B685B68012B3CD14FF40033C1
:104E50003B673B6F93FAA3F3FB66FB6EB3FA83F3F6
:104E6000DBB25B09DBB243F00103DBB2012B02D101
:104E70006F4B1B680FE04FF40033BB66BB6E93FAB9
:104E8000A3F37B664FF400333B663B6E93FAA3F3C8
:104E9000FB65674B5B6A4FF40032BA65BA6D92FAF4
:104EA000A2F27A657A6DB2FA82F2D2B242F02002B0
:104EB000D2B202F01F02012101FA02F21340002BCC
:104EC0007BD10123F3E07B685B68022B3CD14FF080
:104ED00000733B653B6D93FAA3F3FB64FB6CB3FA81
:104EE00083F3DBB25B09DBB243F00103DBB2012BDE
:104EF00002D14F4B1B680FE04FF00073BB64BB6CDB
:104F000093FAA3F37B644FF000733B643B6C93FA1A
:104F1000A3F3FB63464B5B6A4FF00072BA63BA6B54
:104F200092FAA2F27A637A6BB2FA82F2D2B242F0C9
:104F30002002D2B202F01F02012101FA02F2134054
:104F4000002B3AD10123B2E002233B633B6B93FA7F
:104F5000A3F3FB62FB6AB3FA83F3DBB25B09DBB258
:104F600043F00103DBB2012B02D1314B1B680DE092
:104F70000223BB62BB6A93FAA3F37B6202233B6208
:104F80003B6A93FAA3F3FB61294B5B6A0222BA6185
:104F9000BA6992FAA2F27A617A69B2FA82F2D2B26C
:104FA00042F02002D2B202F01F02012101FA02F205
:104FB0001340002B01D1012379E01D4B5B6823F0E6
:104FC00003027B685B681A4913434B60FBF7B6FC2E
:104FD00078670AE0FBF7B2FC02467B6FD31A41F216
:104FE0008832934201D9032361E0114B5B6803F0DF
:104FF0000C027B685B689B009A42EBD10B4B1B68F1
:1050000003F007033A689A4214D2084B1B6823F056
:10501000070206493B6813430B60044B1B6803F00F
:1050200007033A689A4205D0012340E0002002407D
:10503000001002407B681B6803F00403002B08D0BB
:105040001D4B5B6823F4E0627B68DB681A491343FD
:105050004B607B681B6803F00803002B09D0164BDC
:105060005B6823F460527B681B69DB0012491343C1
:105070004B6000F029F801460F4B5B6803F0F0032A
:10508000F0223A613A6992FAA2F2FA60FA68B2FA48
:1050900082F2D2B2D340094AD35C21FA03F3084A20
:1050A0001360084B1B681846FBF704FC00231846E6
:1050B0007837BD4680BD00BF001002405CC40008C8
:1050C000000000200400002080B48BB000AF00235B
:1050D000FB610023BB6100237B6200237B61002313
:1050E0003B62294B5B68FB61FB6903F00C03042BFB
:1050F00002D0082B03D03CE0244B3B623CE0FB6930
:1051000003F470134FF47012BA60BA6892FAA2F204
:105110007A607A68B2FA82F2D2B2D3401C4AD35C87
:105120007B61194BDB6A03F00F030F223A613A6986
:1051300092FAA2F2FA60FA68B2FA82F2D2B2D340DC
:10514000144AD35CBB61FB6903F48033002B08D0A5
:105150000E4ABB69B2FBF3F27B6902FB03F37B628D
:1051600004E07B690C4A02FB03F37B627B6A3B62CF
:1051700002E0064B3B6200BF3B6A18462C37BD4637
:105180005DF8047B704700BF0010024000127A00F7
:105190006CC400087CC4000800093D0080B592B0D2
:1051A00000AF786000233B640023FB63002387F893
:1051B00047307B681B6803F48033002B00F0D480F9
:1051C0004E4BDB6903F08053002B0ED14B4BDB6958
:1051D0004A4A43F08053D361484BDB6903F0805364
:1051E000BB60BB68012387F84730454B1B6803F45D
:1051F0008073002B18D1424B1B68414A43F48073E3
:105200001360FBF79BFB386408E0FBF797FB024653
:105210003B6CD31A642B01D903234BE1384B1B6839
:1052200003F48073002BF0D0344B1B6A03F44073FB
:10523000FB63FB6B002B00F084807B685B6803F4EE
:105240004073FA6B9A427CD02C4B1B6A23F4407358
:10525000FB634FF480333B633B6B93FAA3F3FB6236
:10526000FB6AB3FA83F3DBB21A46264B13449B0066
:105270001A46012313604FF48033BB63BB6B93FA70
:10528000A3F37B637B6BB3FA83F3DBB21A461D4B4C
:1052900013449B001A4600231360184AFB6B1362E9
:1052A000FB6B03F00103002B4BD0FBF747FB38648B
:1052B0000AE0FBF743FB02463B6CD31A41F288320B
:1052C000934201D90323F5E00223BB62BB6A93FA40
:1052D000A3F37B6202233B623B6A93FAA3F3FB6175
:1052E000FB69B3FA83F3DBB25B09DBB243F0020381
:1052F000DBB2022B08D1014B1B6A0DE0001002400B
:1053000000700040008190100223BB61BB6993FADA
:10531000A3F37B61694B5B6A02223A613A6992FAB4
:10532000A2F2FA60FA68B2FA82F2D2B242F0400215
:10533000D2B202F01F02012101FA02F21340002B47
:10534000B7D05E4B1B6A23F440727B685B685B4995
:1053500013430B6297F84730012B05D1574BDB699C
:10536000564A23F08053D3617B681B6803F0010326
:10537000002B08D0514B1B6B23F003027B689B680A
:105380004E4913430B637B681B6803F02003002B1B
:1053900008D04A4B1B6B23F010027B68DB6847493F
:1053A00013430B637B681B6803F40033002B08D0A6
:1053B000424B5B6823F480027B681B6B3F491343BD
:1053C0004B607B681B6803F04003002B08D03B4B0D
:1053D0001B6B23F020027B681B69384913430B6366
:1053E0007B681B6803F40043002B08D0334B1B6B16
:1053F00023F040027B685B69304913430B637B6891
:105400001B6803F40073002B08D02C4B5B6823F45B
:1054100000027B68DB69294913434B607B681B688A
:1054200003F08003002B08D0244BDB6A23F4F872CE
:105430007B689B6921491343CB627B681B6803F43B
:105440008053002B08D01D4B1B6B23F480727B68AC
:105450001B6A1A4913430B637B681B6803F48023A0
:10546000002B08D0154B1B6B23F480627B685B6AB2
:10547000124913430B637B681B6803F40023002B62
:1054800008D00E4B1B6B23F400627B689B6A0B49B0
:1054900013430B637B681B6803F48013002B08D055
:1054A000064B1B6B23F400527B68DB6A03491343F2
:1054B0000B63002318464837BD4680BD00100240EC
:1054C00080B485B000AF78607B680022A3F84420E8
:1054D0004FF43F43FB60FB689AB27B68A3F840201F
:1054E000002318461437BD465DF8047B704780B42E
:1054F00085B000AF78604FF43F43FB607B68B3F842
:1055000040309AB2FB689BB2DB439BB213409AB225
:105510007B68A3F84020002318461437BD465DF889
:10552000047B704784B080B483B000AF786007F12B
:10553000140080E80E007B680122A3F840207B68FD
:105540000022A3F840207B680022A3F844207B6857
:105550000022A3F85020002318460C37BD465DF802
:10556000047B04B07047000080B49DB000AF786049
:105570003960002387F86F307A683B681B789B009E
:1055800013441B889BB223F4EC4323F07003A7F869
:105590006C303B68DB78032B1FD801A252F823F054
:1055A000B1550008CD550008E3550008BF55000867
:1055B000B7F86C3043F40073A7F86C3012E0B7F81A
:1055C0006C3043F4C063A7F86C300BE0B7F86C3074
:1055D00043F48063A7F86C3004E0012387F86F3050
:1055E00000E000BF7A683B681B789B001A44B7F85C
:1055F0006C3043F07F4343F47F0343F4004343F0B4
:1056000080039BB213807A683B681B789B0013442D
:105610001B889BB21BB223F4E04323F070031AB241
:105620003B681B781BB213431BB2A7F866307A683D
:105630003B681B789B001A44B7F8663043F07F4301
:1056400043F47F0343F4004343F080039BB2138091
:105650003B681B7B002B40F049813B685B78002B4B
:1056600000F084807B68BB617B68B3F850309BB2EC
:105670001A46BB691344BB613B681B78DA00BB69FF
:10568000134403F580637B613B68DB885B089BB256
:105690005B009AB27B691A807A683B681B789B0032
:1056A00013441B887B827B8A03F04003002B1BD0B2
:1056B0007A683B681B789B0013441B889BB223F4D9
:1056C000E04323F070033B827A683B681B789B00C1
:1056D0001A443B8A43F07F4343F47F0343F400437F
:1056E00043F0C0039BB213803B68DB78012B20D0D2
:1056F0007A683B681B789B0013441B889BB223F499
:10570000E04323F04003BB81BB8983F02003BB81CE
:105710007A683B681B789B001A44BB8943F07F433F
:1057200043F47F0343F4004343F080039BB21380B0
:10573000A6E27A683B681B789B0013441B889BB2E7
:1057400023F4E04323F04003FB817A683B681B7835
:105750009B001A44FB8943F07F4343F47F0343F4E7
:10576000004343F080039BB2138089E27B683B6374
:105770007B68B3F850309BB21A463B6B13443B63D3
:105780003B681B78DA003B6B134403F20443FB6273
:105790003B68DB885B089BB25B009AB2FB6A1A80AD
:1057A0007B68BB627B68B3F850309BB21A46BB6A19
:1057B0001344BB623B681B78DA00BB6A134403F2F4
:1057C00006437B623B681B69002B12D17B6A1B88F6
:1057D0009BB223F4F8439AB27B6A1A807B6A1B88D7
:1057E0009BB26FEA43436FEA53439AB27B6A1A80D3
:1057F0002FE03B681B693E2B13D83B681B695B0895
:10580000BB663B681B6903F00103002B02D0BB6E33
:105810000133BB66BB6E9BB29B029AB27B6A1A8055
:1058200017E03B681B695B09BB663B681B6903F0BB
:105830001F03002B02D1BB6E013BBB66BB6E9BB24C
:105840009B029BB26FEA43436FEA53439AB27B6A6F
:105850001A807A683B681B789B0013441B887B8402
:105860007B8C03F48043002B1BD07A683B681B7849
:105870009B0013441B889BB223F4E04323F0700386
:105880003B847A683B681B789B001A443B8C43F04E
:105890007F4343F47F0343F4404343F080039BB2D0
:1058A00013807A683B681B789B0013441B889BB26B
:1058B00023F4804323F07003FB83FB8B83F480533A
:1058C000FB83FB8B83F40053FB837A683B681B7874
:1058D0009B001A44FB8B43F07F4343F47F0343F464
:1058E000004343F080039BB21380C9E13B68DB783F
:1058F000022B1ED17A683B681B789B0013441B88DF
:105900009BB223F4E04323F07003A7F862307A6877
:105910003B681B789B001A44B7F8623043F07F4322
:1059200043F47F0343F4014343F080039BB21380AD
:105930001DE07A683B681B789B0013441B889BB270
:1059400023F4E24323F07003A7F864307A683B68DD
:105950001B789B001A44B7F8643043F07F4343F44C
:105960007F0343F4004343F080039BB213807B68C2
:10597000FB657B68B3F850309BB21A46FB6D13444D
:10598000FB653B681B78DA00FB6D134403F580630D
:10599000BB653B681B895B089BB25B009AB2BB6D21
:1059A0001A807B687B657B68B3F850309BB21A46DF
:1059B0007B6D13447B653B681B78DA007B6D134479
:1059C00003F204433B653B685B895B089BB25B0069
:1059D0009AB23B6D1A803B685B78002B40F0938055
:1059E0007A683B681B789B0013441B88A7F84030FB
:1059F000B7F8403003F48043002B1BD07A683B6833
:105A00001B789B0013441B889BB223F4E04323F0D4
:105A10007003FB877A683B681B789B001A44FB8FF6
:105A200043F07F4343F47F0343F4404343F0800358
:105A30009BB213807A683B681B789B0013441B88D9
:105A4000BB87BB8F03F04003002B1BD07A683B68F9
:105A50001B789B0013441B889BB223F4E04323F084
:105A600070037B877A683B681B789B001A447B8FA6
:105A700043F07F4343F47F0343F4004343F0C00308
:105A80009BB213807A683B681B789B0013441B8889
:105A90009BB223F4804323F070033B873B8F83F456
:105AA00080533B873B8F83F400533B877A683B6886
:105AB0001B789B001A443B8F43F07F4343F47F03E2
:105AC00043F4004343F080039BB213807A683B6841
:105AD0001B789B0013441B889BB223F4E04323F004
